:04000000BEEF7FF0E0
:10FF7C000001E3EF7FF0CFEC7FF0C6EC7FF01200D6
:10FF8C00600ED36E000ED26E000E9B6E000E9A6E3B
:10FF9C0012000A0E896E000E8A6E080E8B6EED0E24
:10FFAC00926E9368F70E946E140E0F015D6F070E30
:10FFBC005C6F000E5B6FF18E1200C1EC7FF0080ECF
:10FFCC008B6E8B860B0E026E260E016E5E0EE82E6D
:10FFDC00FED7012EFCD7022EFAD78B960B0E026E93
:10FFEC00260E016E5E0EE82EFED7012EFCD7022ED9
:04FFFC00FAD7E5D774
:020000040020DA
:08000000FFFFFFFFFFFFFFFF00
:020000040030CA
:0E00000015087F7CFF8991FF0FC00FE00F40B5
:00000001FF
